:020000040800F2
:100000003806002005010008E722000859210008F1
:10001000E5220008B50D000879290008000000005D
:100020000000000000000000000000001B24000889
:10003000B70D000800000000192400081D24000866
:100040001F0100081F0100081F0100081F01000810
:100050001F0100081F0100081F0100081F01000800
:100060001F0100081F0100081F0100081F010008F0
:100070001F0100081F0100081F0100081F010008E0
:100080001F0100081F0100081F0100081F010008D0
:100090001F0100081F0100081F0100081F010008C0
:1000A0001F0100081F0100081F0100081F010008B0
:1000B0001F0100081F0100081F0100081F010008A0
:1000C0001F0100081F0100081F0100081F01000890
:1000D0001F0100086D2900081F0100081F0100080A
:1000E0001F0100081F0100081F010008DFF810D0E1
:1000F00000F0DAFB00480047B9350008AFF3008094
:10010000380600200648804706480047FEE7FEE71D
:10011000FEE7FEE7FEE7FEE7FEE7FEE7FEE7FEE7B7
:10012000EB240008ED000008202A04DB203A21FA25
:1001300002F00021704721FA02F3D040C2F1200200
:100140009140084319467047D2B201E000F8012BF4
:10015000491EFBD270470022F6E710B513460A4647
:1001600004461946FFF7F0FF204610BD421C10F868
:10017000011B0029FBD1801A704710B5002200E056
:10018000521C835C8C5CA34201D1002BF8D1D8B205
:10019000E1B2401A10BDF0B480EA0102D40F42006F
:1001A000B2EB410F02D20246084611464A0042D045
:1001B000C30DDDB2C1F3C752AD1A202D35DAC1F33C
:1001C000160141F4000204B15242C5F1200602FAC0
:1001D00006F12A411044B3EBD05F23D0C4B1012D06
:1001E000A0EBC35009DCF0BC4FF0004202EAC3525E
:1001F000DBB200F5000000F070B9400000F1807043
:1002000000EBC350A0F1807040EAD170490009E0D2
:10021000490841EAC071A0EBC35000F50000400856
:1002200000EBC350F0BC00F04FB96142012202EB79
:100230004101001BF6E7F0BC704781F00041AAE7DE
:1002400080F00040A7E780EA010210B502F0004309
:10025000400022D04A001FD0010E01EB1261C0F312
:100260005600C2F3560240F4000042F40002A0FB24
:10027000022000047F39140400D0401C50EA1240D0
:1002800001D44000491EC2B20C0604EBD010401C41
:100290004008802A02D003E0002010BD20F00100B9
:1002A000002900DA0020184310BDC10F80EAE07079
:1002B0000844CA079623002100F00FB900F000425D
:1002C00020F00040C10DC0F3160040F400007F296B
:1002D00001DA00207047962903DCC1F19601C8407D
:1002E00001E096398840002AF4D04042704720F05F
:1002F0000040C10DC0F3160040F400007F2901DA70
:1003000000207047962903DCC1F19601C840704770
:1003100096398840704700F0004230F000400AD023
:10032000C10D01F56071C0F3160042EA0151C20827
:1003300040071143704700200146704701F0004319
:1003400030B421F0004150EA010206D00A0DA2F5B6
:100350006072C1F31301002A02DC30BC0020704738
:10036000440F44EAC104C100E01830BC00EBC250A5
:1003700000F0AAB8002801DBC0F10040002901DB31
:10038000C1F1004181427047002801DBC0F100400B
:10039000002901DBC1F100418842704730B50B46AE
:1003A000014600202022012409E021FA02F59D42A5
:1003B00005D303FA02F5491B04FA02F52844151E79
:1003C000A2F10102F1DC30BD2DE9F05F054600200D
:1003D00092469B4688460646814640241BE02846B6
:1003E000414647462246FFF79FFE53465A46C01AEB
:1003F000914110D311461846224600F067FA2D1A93
:1004000067EB01084F4622460120002100F05EFA0A
:1004100017EB00094E41201EA4F10104DFDC484621
:1004200031462A464346BDE8F09F00000FB4002342
:1004300000B589B00CA900910B996FF00042CB6018
:100440001E4B06931E4B07930423CDE901321D4A30
:10045000089202466B46002000F0F2FA09B05DF8FF
:1004600014FB70B586B006464FF0FF300091CDE921
:100470000101002015460C4604903246694604A846
:10048000FFF7D4FF02460498211825B108B10846A9
:1004900000E020462860049800280DD0002A02DDE4
:1004A0000098884208D0081B0094CDE90104324628
:1004B000694604A8FFF7BAFF06B070BD790C0008C2
:1004C000970C00080F0900080029A8BF7047401CBE
:1004D000490008BF20F00100704710B4B0FA80FC5A
:1004E00000FA0CF050EA010404BF10BC704749B197
:1004F000CCF1200421FA04F411FA0CF118BF012107
:1005000021430843A3EB0C01CB1D4FEA00614FEAE6
:10051000102042BF002010BC704700EBC3501044B5
:100520000029A4BF10BC7047401C490008BF20F040
:10053000010010BC70472DE9FE4F804681EA0300A0
:10054000C00F0C46009021F0004123F00045B8EBAD
:100550000200A94105D24046214690461C460B4662
:10056000024623F00040104347D0270DC7F30A008E
:10057000C3F30A510290401A019040286BDAC3F38A
:10058000130040F4801B0098924620B10023D2EB68
:10059000030A63EB0B0B01985946C0F14002504629
:1005A00000F094F906460D4650465946019A00F06F
:1005B0009CF910EB08006141002487EA115284EA9B
:1005C000E7731A4340D0009A62B3019A012A4FEAB6
:1005D000075215DC001B61EB02014FF0004202EAFA
:1005E0000752CDE90042001C41F5801132462B46EE
:1005F00000F071FB03B0BDE8F08F40462146F9E7FB
:10060000001B61EB0201001C41F5801300185B41E7
:100610002018A2F5001747EB030140EAD570B61980
:100620006D4111E06D084FEA360645EAC0754FEAA4
:100630000752001B61EB0201001C41F580114908C3
:100640004FEA30000019514132462B4603B0BDE855
:10065000F04F00F031BB0098012240000023D0EBA6
:10066000020263EBE073009821464FEAE074B8EBB6
:10067000000061EB0401E9E783F000435BE781F0F0
:10068000004158E72DE9FE4F81EA030404F00044DD
:1006900021F0004100944FF0000B23F0004350EA9A
:1006A00001045ED052EA03045BD0C3F30A54C1F3E1
:1006B0000A552C44A4F2F3340194A0FB0254C1F374
:1006C000130141F48011C3F3130343F4801301FBBE
:1006D000024400FB034E840A970A44EA815447EA25
:1006E0008357A4FB076802958D0A05FB07854FEA2F
:1006F000932C04FB0C542705029D4FEA065847EA49
:100700001637B5EB08056EEB070C870E920E47EA1D
:10071000811742EA8312A7FB0201B6EB0B0164EBDF
:1007200000042B0D43EA0C335E1844EB1C50DA46F0
:100730005146E7FB0201C5F313044FEA0B3343EACA
:1007400014534FEA0432019C43EA0603A4F10C045B
:100750000294009CCDE900B400F0BDFA03B0BDE8FE
:10076000F08F00200146F9E72DE9F04D81EA0304FE
:1007700004F0004B21F0004514464FF0000A23F02E
:10078000004150EA050220D054EA01021DD0C5F311
:100790000A570246C5F31303C1F31300C1F30A5607
:1007A00040F4801543F48013A7EB0608101BD646CF
:1007B00008F2FD3873EB050002D308F1010801E0EF
:1007C00092185B41B8F1000F03DA00200146BDE842
:1007D000F08D00204FF48011064684460EE0171B72
:1007E00073EB050705D3121B63EB050306434CEAC5
:1007F000010C49084FEA300092185B4150EA0107AA
:10080000EDD152EA030012D082EA040083EA050126
:10081000084305D0101BAB4106D20122002306E09D
:1008200000224FF0004302E06FF0010253101AEB78
:1008300006004CEB085110EB0A0041EB0B01BDE840
:10084000F04D00F039BAC1F30A52C1F3130140F27E
:10085000FF3341F480119A4202DA002001467047CA
:1008600040F233439A42A2F2334202DC5242FFF793
:100870005BBC00F02BB8000030B5041E71F1000421
:1008800004DB4FF00044404264EB0101141E73F19D
:10089000000405DB1C464FF00043524263EB0403A7
:1008A000994208BF904230BD064C074D06E0E06813
:1008B00040F0010394E8070098471034AC42F6D3A7
:1008C000FFF718FCE03B0008003C0008202A04DB8E
:1008D000203A00FA02F1002070479140C2F1200353
:1008E00020FA03F3194390407047202A06DBCB1708
:1008F000203A41FA02F043EAE07306E041FA02F3DB
:10090000D040C2F120029140084319467047C0B25E
:100910004FF4F05100F02EBA2DE9FF4F087883B064
:100920009946FF2805D0491C2D2804D0002400201A
:1009300008E000200BE00124F9E700EB800003EB66
:100940004000491C0B78FF2BF7D104B14042002333
:100950000293147819461D462D2C01D02B2C04D15E
:10096000521C2D2C13D000240294AA461478FF2C7C
:100970000FD00A25A3FB057801FB05814FF0000C81
:1009800003FB0C11521CE3194AEB0101EEE70124B1
:10099000EAE7814453EA010002D019F5C87F06DA7C
:1009A00003980021C0E9001107B0BDE8F08F0025D1
:1009B000AE4E2F46DFF8B882184600F0EFF9CDE9C9
:1009C0000001B9F1000002DAC9F1000400E00446B8
:1009D0000023A74A1AEB030B42EB045A12E0E0078C
:1009E00007D02A46334638464146FFF74BFE0746B6
:1009F00088462A46334610461946FFF743FE054609
:100A00000E466410002CEAD1DDE90001B9F1000FB7
:100A10005A46534606DAFFF7A7FE3A464346FFF723
:100A2000A3FE05E0FFF72EFE3A464346FFF72AFEF7
:100A3000029A0AB181F00041039AC2E90001B3E7CA
:100A40002DE9FF4F1F468DB0D7E901464FF0FF3823
:100A50002E2045464FF000090B90B9696D1C0E9889
:100A60008847396A824688470028F6D1BAF1FF3FA5
:100A70000AD024F4D064002E11DDBAF12B0F08D077
:100A8000BAF12D0F0BD102E0404611B08DE744F4CE
:100A90008064B9696D1C0E9888478246761E694647
:100AA000600501D52D2000E02B208DF8000001F11C
:100AB000010B0DF1200809E0B9696D1C0E988847FB
:100AC00082460F9844F40074761E0560002E02DD05
:100AD000BAF1300FF0D00B998A453ED144F0800432
:100AE00006E00F99681CA9F1010944F4007408603C
:100AF000B9696D1C761E0E98884782463028F0D062
:100B00002BE00B998A4505D1200603D444F08004DC
:100B1000761E18E0504602F02FF808B30DF11301CD
:100B2000761E44F400748B4508D2AAF130000BF80D
:100B3000010B200607D5A9F1010003E0200602D42D
:100B400009F101008146A00502D50F99681C0860D3
:100B5000B9696D1C0E9888478246002ED1DC53E09F
:100B6000002E51DDBAF1650F02D0BAF1450F4BD11D
:100B7000A00549D5B9696D1C24F44074761E0E9801
:100B800088478246002E0CDD2B2804D0BAF12D0FA9
:100B900007D144F48074B9696D1C0E988847824669
:100BA000761EE00501D52D2100E02B2108F8011B60
:100BB000CDF82C8021E00DF12901761E44F400745B
:100BC00088450CD2AAF1300010F0FF0088F8000030
:100BD00002D10B99884509D908F1010806E0E00522
:100BE00001D5244801E042F20F708146B9696D1CBD
:100BF0000E98884782460F980560002E04DD504607
:100C000001F0BAFF0028D6D1F9690E988847FF2075
:100C10008BF8000088F800000020069007904B46F3
:100C20006A4608A906A8FFF777FEA00502D46FF070
:100C300001002AE714F0240F0AD0E00714D1DDE9FF
:100C400006123868031D3B600068C0E900120BE023
:100C5000DDE90601FFF772FB0146E00704D13868C1
:100C6000021D3A600068016028460EE7000014404B
:100C70000000F03FF1D8FFFF426842B1016811F86F
:100C8000013B23B1521EC0E90012184670470121F2
:100C9000C160881E704742685AB1C368016843B991
:100CA00083688B4205D0491E521CC0E90012002007
:100CB00070474FF0FF30704710B5141E73F10004F9
:100CC00008DA401C41F1000192185B411A4301D13E
:100CD00020F0010010BD2DE9F04D92469B4611B168
:100CE000B1FA81F202E0B0FA80F220329046FFF7CA
:100CF000EDFD04460F4640EA0A0041EA0B01534667
:100D00005A46084313D0114653EA010019D0C8F1DE
:100D100040025046FFF708FA05460E46504659462F
:100D20004246FFF7D3FD084305D0012004E02046EA
:100D30003946BDE8F08D0020054346EAE0762C43B5
:100D400037430A986305E40AA0EB08000022FD0A75
:100D500044EA47540A3002D500200146E9E701057C
:100D600010196941DDE9084500196941BDE8F04DF8
:100D7000A2E700007F2801D9002208E0064A02EB22
:100D80005002C007127800D1120902F00F020120B0
:100D90009040084070470000A03B00080EB540F2AC
:100DA000334202920022CDE900221346FFF793FF5F
:100DB00003B000BDFEE7704772B6FEE710B590F8CD
:100DC00021100022022905D00421816380F820200F
:100DD000012010BD01680B6823F00E030B60016851
:100DE0000B6823F001030B6090F84030C46B0121C5
:100DF00001FA03F3636080F8211080F82020104688
:100E000010BD000010B590F821100024022903D075
:100E10000421816301243DE001680A6822F00E028A
:100E20000A6001680A6822F001020A601A4A016831
:100E3000914201D1012121E0174A1432914201D19E
:100E400010211BE0144A2832914201D1891515E086
:100E5000114A3C32914201D189140FE00E4A5032BE
:100E6000914202D14FF4803108E00B4A6432914242
:100E700002D14FF4801101E04FF08071064A083A28
:100E80005160012180F82110002180F82010416B71
:100E900001B18847204610BD0800024070B50446E5
:100EA00000F004F90546601C02D0044800780444B0
:100EB00000F0FCF8401BA042FAD370BD54000020A3
:100EC0002DE9F84FDFF8B891002409F1040A0AF17E
:100ED000040B23460F270BF1040EC9E00125A540A2
:100EE0002A40AA427DD1674ED1F804C0ACEB060877
:100EF000B44532D014DCBCF1030F3AD009DCBCF1AC
:100F0000000F2AD0BCF1010F1CD0BCF1020F31D16F
:100F10001DE0BCF1110F17D0BCF1120F2AD119E05E
:100F2000B8F5881F19D006DCB8F5803F15D0B8F5A4
:100F3000801F1FD111E0B8F5001F0ED0B8F5041FB7
:100F400018D10AE0CB6815E0CB681B1D12E0CB6816
:100F500008330FE0CB680C330CE08B682BB1012B0E
:100F60004FF0080303D0456104E0042302E005616B
:100F700000E00023FF2A01D8064601E000F1040644
:100F80004FEA840501D9A5F12005D6F8008007FABB
:100F900005FC28EA0C0803FA05F548EA0508C6F836
:100FA00000804D68ED0062D5374DAE6946F0010610
:100FB000AE61AD6924F0030605F001050095334DDF
:100FC00006EB050CDCF80850A607360F07FA06F802
:100FD00025EA0805DFF8B880404503D14FF0000846
:100FE00017E044E0DFF8AC80404502D14FF0010843
:100FF0000FE0DFF8A480404502D14FF0020808E07E
:10100000DFF89880404502D14FF0030801E04FF02F
:10101000040808FA06F848EA0508CCF808804D6884
:10102000D9F80060ED034D4601D5164300E0964324
:101030002E604D68DAF80060AD03554601D51643C1
:1010400000E096432E604D68DBF80060ED025D46DF
:1010500001D5164300E096432E604D68DEF800602F
:10106000AD02754601D5164300E096432E60641C20
:101070000D682A46E5407FF431AFBDE8F88F0000E7
:101080000004014000001110001002400000014067
:1010900000080140000C0140001001400014014014
:1010A0008068084000D00120704700000148806837
:1010B0007047000054000020024881680278114403
:1010C0008160704754000020074810B5016841F066
:1010D00010010160032000F075F80F2000F006F801
:1010E00000F024F8002010BD0020024070B50D4D26
:1010F00004464FF47A712878B1FBF0F00A49096888
:10110000B1FBF0F000F0ECFA48B9102C07D2002245
:101110002146501E00F036F800206C6070BD0120A2
:1011200070BD000054000020600000200C4808B58D
:10113000816941F001018161816901F00101009142
:10114000C16941F08051C161C06900F080500090D8
:101150000448416821F0E06141F00071416008BD40
:101160000010024000000140002809DB00F01F02CF
:10117000012191404009800000F1E020C0F80011F9
:1011800070470000F0B40E4B1B680C46C3F30223FB
:10119000C3F10705042D00D90425191D072901D223
:1011A000002300E0DB1E012606FA05F1491E21405E
:1011B00099409E40761E16403143F0BC01F0EEBBD4
:1011C0000CED00E0064900F0070208684FF6FF0347
:1011D000184040EA0220034A1043086070470000AC
:1011E0000CED00E00000FA052DE9F0470F46050080
:1011F00061D0434E306800F00700B84209D2306831
:1012000020F0070038433060306800F00700B84233
:1012100051D128683B4C810712D5400703D560683F
:1012200040F4E06060602878000703D5606840F40F
:10123000605060606068A96820F0F000084360605A
:101240002878C00728D06868012810D021680228B3
:1012500010D0890700292EDA616821F003010143CB
:101260006160FFF723FF804641F288390DE0216875
:101270008903EFE78901EDE7FFF718FFA0EB08010D
:10128000494502D90320BDE8F0876068696800F02D
:101290000C00B0EB810FEFD1306800F00700B842CE
:1012A0000BD9306820F0070038433060306800F018
:1012B0000700B84201D00120E5E72878400705D5AE
:1012C0006068E96820F4E0600843606028780007FF
:1012D00006D56068296920F4605040EAC10060606A
:1012E00000F038F86168084AC1F30311515CC84046
:1012F0000649086006480068FFF7F8FE0020C2E7CC
:101300000020024000100240883B000860000020DE
:10131000580000200448054900684968044AC1F3A0
:101320000221515CC840704760000020001002405C
:10133000983B00080448054900684968044AC1F31D
:10134000C221515CC840704760000020001002407C
:10135000983B000812A185B00FC98DE80F0014A0BA
:10136000144A006804905168134801F00C03042BE0
:1013700010D0082B0ED1C1F38343C9031DF803001D
:101380000AD5516804AAC1F34041515C0A4A50434E
:10139000B0FBF1F005B0704708494843FAE7000098
:1013A00002030405060708090A0B0C0D0E0F1010A6
:1013B000010200000010024000127A0000093D0006
:1013C0002DE9F84F040070D02078C04DC00749D0F7
:1013D0006868C0F38100012807D06868C0F3810005
:1013E000022809D16868C00306D52868800339D56A
:1013F00060680028E7D035E06068B0F5803F0BD02A
:1014000010B1B0F5A02F11D0286820F480302860EA
:10141000286820F4802002E0286840F480302860AA
:10142000606890B1FFF742FE06460AE0286840F483
:1014300080202860F0E700BFFFF738FE801B64289B
:1014400073D828688003F7D50CE0FFF72FFE064617
:1014500005E000BFFFF72AFE801B6428F0D828684B
:101460008003F7D420789A4E80074FF001094FF09F
:10147000000839D5686810F00C0F07D06868C0F311
:101480008100022809D16868C00306D42868800753
:1014900014D52069012808D110E02069B0B1C6F840
:1014A0000090FFF703FE074605E00AE1FFF7FEFDA7
:1014B000C01B0228C4D828688007F7D5286861694E
:1014C00020F0F80040EAC10028600DE0C6F8008076
:1014D000FFF7ECFD074604E0FFF7E8FDC01B02281C
:1014E00023D828688007F7D4207800072CD57948BE
:1014F000A169D9B1C0F80090FFF7D8FD074604E014
:10150000FFF7D4FDC01B02280FD8686A8007F7D503
:1015100071484FF4FA510068B0FBF1F0009000BF41
:101520000098411E0091FAD20EE080E0C0F80080E1
:10153000FFF7BCFD074604E0FFF7B8FDC01B02281B
:1015400075D8686A8007F7D42078400760D5E869C5
:101550000027C00008D4E86940F08050E861E869DD
:10156000012700F0805000905C480168C90513D441
:101570000168834641F480710160FFF797FD824660
:1015800006E000BFFFF792FDA0EB0A0064284ED8EA
:10159000DBF80000C005F5D5E06801280AD008B1E5
:1015A000052813D0286A20F001002862286A20F05C
:1015B000040002E0286A40F001002862E06841F27D
:1015C000883B98B1FFF772FD82460BE0286A40F035
:1015D00004002862EEE700BFFFF768FDA0EB0A01F8
:1015E00059455AD8286A8007F6D50CE0FFF75EFD0A
:1015F000824605E0FFF75AFDA0EB0A0159454CD899
:10160000286A8007F6D41FB1E86920F08050E861AD
:10161000E06988B36968C1F38101022944D00228D6
:10162000C6F8608004D0FFF741FD044638E034E09E
:10163000FFF73CFD074604E0FFF738FDC01B02281A
:101640002BD828688001F7D4206AB0F5803F05D1F7
:101650006868A16820F4003008436860D4E9080194
:101660000843696821F4741108436860C6F8609003
:10167000FFF71CFD044606E025E000BFFFF716FD5E
:10168000001B022809D828688001F7D51BE000BF9D
:10169000FFF70CFD001B022802D90320BDE8F88FDC
:1016A00028688001F4D40EE00128F7D06868226A27
:1016B00000F48031914204D1616A00F470108842D4
:1016C00001D00120EAE70020E8E700000010024016
:1016D000000042428004424260000020007000404E
:1016E00010B5401EB0F1807F01D3012010BD4FF036
:1016F000E02460610F21601701F050F90020A06123
:1017000007202061002010BD70B590F83C20012A10
:1017100026D0012480F83C40022280F83D20036856
:101720005A689D6822F070060A6832435A600D4B71
:1017300002689A4208D0B2F1804F05D00A4B9A4213
:1017400002D00A4B9A4204D1496825F0800319431C
:10175000916080F83D40002180F83C10084670BD43
:10176000022070BD002C0140000400400008004031
:1017700010B5040003D094F83D0010B107E001203B
:1017800010BD002084F83C00204600F01FF8022025
:1017900084F83D00211D206800F0A8FE012084F897
:1017A000460084F83E0084F83F0084F8400084F846
:1017B000410084F8420084F8430084F8440084F82F
:1017C000450084F83D00002010BD000008B5006809
:1017D0000649884208D10648C16941F00401C16147
:1017E000C06900F00400009008BD0000000800403F
:1017F0000010024070B5044690F83C00012817D054
:10180000012584F83C50022084F83D00206882685D
:1018100022F0770222F47F4282600868502830D09C
:101820000DDC20284DD005DC98B310283BD148E0D2
:10183000022070BD302844D0402834D139E06028DF
:1018400028D0702806D0B0F5805F2CD0B0F5005FAE
:1018500029D10AE0CB68D1E90121206800F089FE96
:101860002068816841F0770109E0CB68D1E9012166
:10187000206800F07EFE2068816841F4804181602C
:1018800011E0CA684968206800F028FF50212068EC
:1018900007E016E0CA684968206800F030FF602160
:1018A000206800F070FE84F83D50002084F83C0071
:1018B00070BDCA684968206800F010FF40212068A8
:1018C000EFE7226801461046EBE7000000B585B05F
:1018D0000021009101910291039100680B49884217
:1018E00012D10B48816941F0080181618069694624
:1018F00000F0080004904FF4407000900220019026
:1019000003900448FFF7DCFA05B000BD0008004072
:1019100000100240000C014070B5044690F83C00F5
:101920000D4601280AD0012084F83C0042B1042A67
:1019300018D0082A2AD00C2A4DD139E0022070BDD7
:10194000206800F029FE2068816941F0080181616A
:101950002068816921F004018161206881692A6918
:10196000114311E0206800F03FFE2068816941F4D6
:10197000006181612068816921F480618161206852
:1019800081692A6941EA0221816124E0206800F02E
:1019900057FE2068C16941F00801C1612068C16932
:1019A00021F00401C1612068C1692A69114311E075
:1019B000206800F071FE2068C16941F40061C161D6
:1019C0002068C16921F48061C1612068C1692A6908
:1019D00041EA0221C161002084F83C0070BD10B5CD
:1019E000040003D094F83D0010B107E0012010BDC1
:1019F000002084F83C00204600F01EF8022084F805
:101A00003D00211D206800F071FD012084F8460092
:101A100084F83E0084F83F0084F8400084F84100D8
:101A200084F8420084F8430084F8440084F84500B8
:101A300084F83D00002010BD7047000010B504463A
:101A4000022249B104290ED0082913D094F841008C
:101A5000012816D0012010BD94F83E000128F9D1CC
:101A600084F83E200FE094F83F000128F2D184F87A
:101A70003F2008E094F840000128EBD184F8402092
:101A800001E084F841200122206800F065FD0F4943
:101A90002068884203D1426C42F4004242642068CC
:101AA000884208D0B0F1804F05D00949884202D061
:101AB0000849884204D1816801F00701062903D052
:101AC000016841F001010160002010BD002C0140BF
:101AD000000400400008004070477047F8B50268F5
:101AE00004461068D168536910F00F0F4FF00005DD
:101AF00053D003F0010601F4907737435FD0C2075B
:101B000005D0CA0503D5226C42F0010222644207C7
:101B100005D5DA0703D0226C42F002022264820764
:101B200005D5DA0703D0226C42F0040222640207D2
:101B300007D501F02002324303D0226C42F00802A4
:101B40002264226C002A34D0800604D5880602D58F
:101B5000204600F006FE20684069216CC0F380102A
:101B6000090700D430B3204600F0E3FD2068416946
:101B700049061BD5416921F040014161A06BA8B124
:101B800058494163A06BFFF73DF9002811D0A06BC5
:101B9000416B01B0BDE8F040084783060FD58B06C6
:101BA0000DD52046BDE8F84000F0DBBD2046FFF72C
:101BB00094FFF8BD2046FFF790FF2564F8BD266B23
:101BC0002023012E52D1C60650D5CE064ED5106820
:101BD00050680090506940062AD5A16B086840689B
:101BE0000004000CEAD0A68D8642E7D9E08588691A
:101BF000202818D0D06820F48070D0602068416917
:101C000021F0010141612068416921F040014161F9
:101C100084F83E3025632068C16821F01001C1605E
:101C2000A06BFFF7CBF8A08DE18D401A81B219E0CF
:101C3000A08DE18D401A81B2E08D0028BED0002930
:101C4000BCD0D06820F49070D0602068426922F047
:101C50000102426184F83E3025632068C26822F0A8
:101C60001002C2602046FFF737FFF8BD05062BD5EE
:101C70000D0629D594F83D002128F6D1A068B0F5CD
:101C8000805F01D12069B0B1206A411C21622168C6
:101C900000784860E08C401E0004000CE084E4D131
:101CA0002068C16821F08001C1602068C16841F0EE
:101CB0004001C160F8BD206A0088C0F30800506090
:101CC000206A801C2062E5E74006F3D54806F1D57E
:101CD000D168204621F04001D16084F83D3000F009
:101CE0003AFAF8BD2327000870B5040004D094F830
:101CF0003D00002510B106E0012070BD84F83C5085
:101D0000204600F023F8242084F83D002068C168B4
:101D100021F40051C160204600F07EFD2068016979
:101D200021F4904101612068416921F02A0141615B
:101D30002068C16841F40051C1602564202084F806
:101D40003D0084F83E00002070BD000070B586B0F4
:101D5000002400940194029403942B4E03682B49B1
:101D6000022003222A4DB34229D18B6943F48043D8
:101D70008B618B6903F4804304938B6943F0040304
:101D80008B618969039201F0040104910102CDE99C
:101D9000001069462846FFF793F82815CDE900049E
:101DA000694628460294FFF78BF800221146252049
:101DB000FFF7E8F92520FFF7D7F906B070BD154EFB
:101DC000B342FAD1CB6943F40033CB61CB6903F45E
:101DD000003304938B6943F004038B618969039298
:101DE00001F0040104910421CDE900106946284660
:101DF000FFF766F80820CDE90004694628460294FA
:101E0000FFF75EF8D9E700000038014000100240FB
:101E100000080140004400402DE9F84F044690F8C6
:101E20003E009A4616460D46202853D1FDB1F6B124
:101E300094F83C0001284DD0012084F83C00002794
:101E40002764222084F83E002763FFF72FF9A68538
:101E50008146E685A0684FF48058404501D120694D
:101E600040B12E465FF0000584F83C7027E0012069
:101E7000BDE8F88F0026F7E74B46002220212046D8
:101E8000CDF800A000F03FFD08B10320F0E726B137
:101E9000A06840451BD038B108E020684068C0F316
:101EA000080025F8020B07E0206980B1206840682F
:101EB00000F07F0006F8010BE08D401EE085E08D0C
:101EC0000028D9D1202084F83E000020D0E72068E7
:101ED0004068EFE70220CBE790F83E30202B0ED190
:101EE00059B152B190F83C30012B08D0012380F851
:101EF0003C300023036300F0EBBC0120704702205C
:101F0000704700002DE9FC470068514988427CD1A8
:101F1000504841880A0479D402464B0412784FF0A5
:101F2000000679D50A2A73D141F4004141808046E8
:101F300049A14A48FEF721F9494C4A4F4FF07E59D2
:101F4000A8B149A14548FEF718F9A8B147A14348EF
:101F5000FEF713F9464D08B346A14048FEF70DF9C8
:101F600078B345A13D48FEF708F958B348E0494623
:101F70002068FEF710F903E049462068FEF75DF996
:101F800005462060FEF7B3F93968C8634FEA0500DB
:101F9000FEF7C1F902460B4638A00FE04946286813
:101FA000FEF7F9F804462860FEF7A1F939680864DD
:101FB0002046FEF7B0F902460B4632A000F0DEFCE8
:101FC0001EE000E00BE049462868FEF736F90446BB
:101FD0002860FEF78CF9396808642046D8E72B485A
:101FE0002060286039689620C863396808642849E9
:101FF00000200246CDE900010B4626A000F0BEFC01
:10200000C8211648FEF7A7F803E01EE010E003E041
:102010000DE0A8F802600BE00D2A12D0C1F30D0309
:102020000E4C491C89B2E2544180C72900D9468030
:1020300002B00A48BDE8F04701220649C830FFF760
:102040004BBF41F480414180F2E7BDE8FC870000CE
:1020500000380140480000204D310000E40000201D
:10206000100000209C0000204D3200004D33000085
:10207000140000204D3400004D35000073783D25DC
:10208000660D0A007A793D25660D0A0000001643A8
:1020900000C0624073783D256620207A793D256630
:1020A0000D0A00002DE9F843044690F83D001F4654
:1020B00016460D4620284CD1C5B1BEB194F83C005F
:1020C000012846D0012084F83C004FF00008C4F8F5
:1020D0004080212084F83D00FEF7E8FFA684814679
:1020E000E684A068B0F5805F03D004E00120BDE87D
:1020F000F883206928B12E465FF0000584F83C8003
:102100000EE00026FAE78021204600F0FCFBA0B993
:10211000AEB116F8010B21684860E08C401EE084E7
:10212000E08C4B464FF0000200970028EBD14FF0B7
:102130004001204600F0E7FB30B10320D7E735F837
:10214000020BC0F30800E6E7202084F83D000020E1
:10215000CDE70220CBE77047FEE7000030B585B041
:102160000024164801940394816941F020018161A3
:10217000816901F020010491816941F004018161CC
:10218000816901F004010491816941F008018161D4
:102190008069012500F008000490E0200090694665
:1021A00002950748FEF78CFE03208DE83100694652
:1021B0000448FEF785FE05B030BD00000010024067
:1021C00000080140000C014010B58EB000240794B7
:1021D000089409940A940B941C2168460C94FDF70A
:1021E000BAFF23482149016040F2CF21C0E9011420
:1021F00040F2CF71C0E9031480218161FFF7B8FA82
:1022000008B1FEF7D9FD4FF48050079007A9184890
:10221000FFF7F0FA08B1FEF7CFFD1548FFF7DFFB37
:1022200008B1FEF7C9FD0B940BA911480C94FFF7F8
:102230006BFA08B1FEF7C0FD6020CDE900040294FE
:10224000082269460A480494FFF766FB08B1FEF7C6
:10225000B3FD0C2269460648FFF75EFB08B1FEF7A6
:10226000ABFD0348FFF732FB0EB010BD0008004085
:102270009C0000200C4810B50A4901604FF416512B
:102280004160002181600C22C160C0E904128161BB
:10229000C161FFF729FD002803D0BDE81040FEF71B
:1022A0008BBD10BD00380140AC0100200C4810B5BA
:1022B0000A4901604FF4E1314160002181600C2244
:1022C000C160C0E904128161C161FFF70DFD002802
:1022D00003D0BDE81040FEF76FBD10BD00440040C4
:1022E000F0010020FEE7FEE70A4809490B4A0160B9
:1022F0000949416000218160C1600161C0E90512A6
:10230000074AC0E9072141628162C162704700004B
:10231000CDCC4C3E6C0000208FC2F53C5C8F423E21
:102320000AD7233C0B480A490C4A01600A49C0E914
:1023300001120B49C16000214FF07A530161C0E9DD
:102340000513084BC361C0E908218162C16270476F
:10235000B81E853E6C0000208FC2753D0AD7A33C95
:102360000000A0400AD7A33D2DE9F041FDF79DFFF5
:10237000124C05462946E0602069FDF70CFF2061FC
:10238000074628466169FDF758FFA168FDF75BFF26
:10239000064639466068FDF756FF0746294620681D
:1023A000FDF751FF3946FDF7F6FE3146FDF7F3FE26
:1023B000FDF784FF6561BDE8F08100006C0000203E
:1023C0002DE9F041FDF771FF124C05462946606288
:1023D000A06AFDF7E0FEA06207462846E16AFDF725
:1023E0002CFF216AFDF72FFF06463946E069FDF70D
:1023F0002AFF07462946A069FDF725FF3946FDF764
:10240000CAFE3146FDF7C7FEFDF758FFE562BDE89D
:10241000F08100006C0000207047704770B5FEF737
:102420004BFE154C6068401C6060322822D1134E70
:1024300002213046FEF734FE0025B8B902213046AD
:10244000FEF72EFE0028F9D001210BE002213046D4
:10245000FEF726FE50B902213046FEF721FE002885
:10246000F9D0294606A0216000F088FA20680128EA
:10247000ECD0656070BD00004C000020000C0140F5
:1024800073746F70203D2025640D0A0030B58FB045
:1024900028216846FDF75FFE14210AA8FDF75BFEC0
:1024A00001210804CDE900100024029402250491C2
:1024B000CDE907504FF4E01009906846FEF780FF21
:1024C00008B172B6FEE70F20CDE90A054FF480602F
:1024D000CDE90C4002210AA80E94FEF785FE0028E3
:1024E00001D072B6FEE70FB030BD7047F0B502689C
:1024F000164B174C174D4FF08047984205D0B84205
:1025000003D0A04201D0A84203D122F070064A684D
:102510003243984205D0B84203D0A04201D0A8422D
:1025200003D122F44074CA6822434C6922F080022D
:10253000224302608A68C2620A688262984201D1BC
:102540000969016301214161F0BD0000002C0140D7
:10255000000400400008004010B501F01F030121F5
:10256000046A99408C430462016A9A4011430162F3
:1025700010BD10B5846842EA032224F47F440A4364
:102580002243826010BD826822F070020A4342F04A
:10259000070181607047000030B5026A22F0010235
:1025A0000262026A4368846924F073050C682C4354
:1025B00022F002058A682A430A4DA8420BD122F074
:1025C0000805CA6823F440732A434D6922F00402C7
:1025D0001D438B692B4343608461496841630262F8
:1025E00030BD0000002C014030B5026A22F010021C
:1025F0000262026A436884690D6824F4E64444EA8E
:1026000005248D6822F0200242EA05120B4DA842F3
:102610000ED1CD6822F0800242EA05124D6923F402
:10262000406343EA85038D6922F0400243EA850353
:102630004360846149688163026230BD002C0140BF
:1026400030B5026A22F480720262036A4268C46989
:1026500023F4007324F073050C682C438D6843EA5F
:1026600005230C4DA8420ED1CD6823F4006343EA44
:1026700005234D6922F4405242EA05128D6923F484
:10268000806342EA05124260C4614968C163036223
:1026900030BD0000002C014030B5026A22F48052A7
:1026A0000262046A4268C3690D6823F4E64343EAA0
:1026B00005238D6824F4005444EA0534064DA842ED
:1026C00004D14D6922F4804242EA85124260C3611E
:1026D00049680164046230BD002C014010B5036AF2
:1026E000046A24F001040462846924F0F00444EADA
:1026F000021423F00A020A438461026210BD10B57D
:10270000036A23F0100303628369046A23F47043AD
:1027100043EA023224F0A00343EA0111826101621C
:1027200010BD10B5406A0021C185C184FFF7D5F9FD
:1027300010BD0168CA6822F49072CA6001684A69D3
:1027400022F001024A61016B012904D10168CA68C3
:1027500022F01002CA60202180F83E10002101639F
:10276000704708B590F83E10222901D0022008BD1C
:1027700082684FF480539A4201D1016921B1816A84
:102780009A421BD04AB10AE00268816A5268C2F3D9
:1027900008020A80816A891C08E0026972B1026835
:1027A000526802F07F020A70816A491C8162C18D01
:1027B000491E0904090CC18503D019E0026852685A
:1027C000F1E70168CA6822F02002CA600168CA689D
:1027D00022F48072CA6001684A6922F001024A61EB
:1027E000202180F83E10016B012903D0FFF78AFBFE
:1027F000002008BD002101630168CA6822F01002B0
:10280000CA6001680A68D20602D50A684968009160
:10281000818DFFF761F9EBE770B504460068016947
:10282000E26821F44051114301612169A068084325
:10283000616908432168CA6841F20C639A43024304
:10284000CA6020684169A26921F440711143416165
:102850001E492068884202D1FEF76CFD01E0FEF7B8
:1028600059FD00EBC00101EB00126068642180009B
:10287000B2FBF0F3B3FBF1F36FF018067343B2FB56
:10288000F0F5B2FBF0F605EB8305322303EB0515FB
:10289000B5FBF1F5B6FBF1F605F0F00505EB061515
:1028A000B2FBF0F6B2FBF0F0B0FBF1F06FF0180203
:1028B000504306EB800003EB0010B0FBF1F0216801
:1028C00000F00F002844886070BD0000003801400F
:1028D00081628285C28500210164222280F83E2027
:1028E00080F83C100168CA6842F48072CA600168CE
:1028F0004A6942F001024A610068C16841F0200162
:10290000C160002070472DE9F041984617460E46F9
:102910000446069D1DE0681C1BD02DB1FEF7C6FBCA
:10292000A0EB0800A84214D92068C16821F4D07136
:10293000C1602068416921F001014161202084F8D3
:102940003D0084F83E00002084F83C000320BDE8F0
:10295000F0812068006836EA000004D00020B84208
:10296000D9D00020F3E70120F9E700000148FFF784
:10297000B5B80000AC010020FEE700000FB4054B25
:1029800010B503A9044A029800F0FEF810BC5DF8E7
:1029900014FB0000B9320008640000200907090E8A
:1029A000002804DB00F1E02080F80014704700F0FC
:1029B0000F0000F1E02080F8141D70470148006806
:1029C000704700006800002002E008C8121F08C11C
:1029D000002AFAD170477047002001E001C1121FA0
:1029E000002AFBD1704700000149086070470000D1
:1029F000680000202DE9FF5F82B00021DDE904308E
:102A0000020DDDF840B0034318D044F61050A2F296
:102A1000FF3242431514119801281FD0A5EB0B007B
:102A2000401C5FEA000A4FF000064E4FDFF8389175
:102A3000B046504615D5CAF1000413E011980124A0
:102A40004AA3012801D16FEA0B010298119AC0E94B
:102A50000031C0E9024206B0BDE8F09FCBF10000B2
:102A6000DFE704460021404A491842EB0450CDE913
:102A7000001012E0E00707D032463B464046494688
:102A8000FDF700FE8046894632463B461046194611
:102A9000FDF7F8FD06460F466410002CEAD1DDE98B
:102AA0000401DDE90023BAF1000F06DAFDF7EAFDC3
:102AB00042464B46FDF7E6FD05E0FDF755FE424672
:102AC0004B46FDF751FE04460E460022284BFDF70B
:102AD000D3FE03D84FF0FF30014607E00022254B1C
:102AE00020463146FDF727FDFDF7ADFE102409E035
:102AF000002C0ADB0A220023FDF766FC039B303220
:102B00001A55641E50EA0102F2D1641C039AC4F102
:102B100011031444119A012A03D0012208430DD154
:102B20000AE0084304D000204FF0110B119072E727
:102B3000A3EB0B056D1E0DE05B4504DD4FF00002BD
:102B400005F1010504E003DA4FF00002A5F10105EB
:102B5000002AECD002981199C0E90231C0E9004581
:102B600079E70000000014400000F03F3000000052
:102B70000000F0430000E03F30380A2801D2012075
:102B800070470020704700002DE9FF4F95B09A462E
:102B9000884606460025EEE1252877D10024274601
:102BA000F94A0121039400E0044316F8013F203B59
:102BB00001FA03F01042F7D130782A2811D06FF0D3
:102BC0002F033078A0F13002092A16D8039A44F076
:102BD000020402EB820203EB42021044761C0390D3
:102BE000EFE758F8042B0392002A03DA504244F42A
:102BF0000054039044F00204761C30782E2816D13D
:102C000016F8010F44F004042A280DD06FF02F02AB
:102C10003078A0F13003092B09D807EB870302EBCA
:102C20004303C718761CF3E758F8047B761C30780A
:102C30006C280FD006DC4C2817D068280DD06A28E5
:102C400014D104E0742810D07A280FD10DE044F498
:102C500000140AE044F4801401E044F44014727853
:102C6000824202D104F58014761C761C30786628E6
:102C70000BD013DC582877D009DC002875D0452804
:102C8000F6D04628F4D047281AD193E118E06328FB
:102C900035D0642879D0652812D18BE1702873D0A3
:102CA00008DC6728F1D069286FD06E280DD06F2816
:102CB00006D1ACE073282CD0752874D0782853D076
:102CC0005246179990476D1C54E1C4F302500228F4
:102CD00009D003280DD0D8F8001004280DD00D60BD
:102CE00008F1040846E1D8F80010EA17C1E90052DB
:102CF000F6E7D8F800100D80F2E70D70F0E718F84D
:102D0000041B8DF8001000208DF80100EB46012017
:102D100003E058F804BB4FF0FF3061074FF00001AB
:102D200002D40DE009F101018946B9420FDA81456B
:102D3000F8DB1BF809100029F4D108E009F10101C2
:102D400089468142FADB1BF809100029F6D1039865
:102D50005346A0EB090721463846179A00F080FA3F
:102D6000284400EB090507E044E008E10DE01BF80A
:102D7000010B524617999047B9F10109F7D2534612
:102D800021463846179AF2E039E00A21C4F302528C
:102D90004FF0000B0091022A06D058F8040BC1171F
:102DA000032A09D00AE023E008F1070020F0070217
:102DB000F2E80201904605E000B2C117042A01D1F1
:102DC00040B2C117002906DA0A460021404261EBF1
:102DD00002012D2202E0220504D52B228DF80420C9
:102DE000012203E0E20701D02022F7E7914657E0F5
:102DF0000A2100E010214FF0000B00910BE01021A0
:102E00004FF0000B44F004040827009103E0082071
:102E10004FF0000B0090C4F30252022A05D058F87C
:102E2000040B0021032A08D008E008F1070020F075
:102E30000702F2E80201904603E080B2042A00D1C2
:102E4000C0B24FF0000922072AD53278702A07D085
:102E5000DDF800C08CF0100C5CEA0B0C05D00EE025
:102E600040228DF80420012208E050EA010306D038
:102E700030238DF804308DF8052002229146009B06
:102E800083F0080353EA0B030AD150EA010201D18F
:102E9000620705D530228DF804204FF001097F1E0E
:102EA0003278582A04D039A20C920CAA02920BE074
:102EB0003BA2F9E75B46009AFDF786FA0C9B9B5C08
:102EC000029A521E0292137050EA0102F2D1029845
:102ED00004A9081A00F1200B600702D524F48034FD
:102EE00000E001275F4502DDA7EB0B0000E00020BA
:102EF00000EB0B01009003984944401A0390E00353
:102F000006D453462146179A039800F0A9F90544C0
:102F1000002706E001A85246C05D179990476D1C36
:102F20007F1C4F45F6DBE0030CD553462146179A2C
:102F3000039800F095F9054404E0302052461799B3
:102F400090476D1C0099481E00900029F5DC08E0B0
:102F50000298029952460078491C029117999047AD
:102F60006D1CBBF10001ABF1010BF1DC5BE100F08A
:102F700065F90544761C307800287FF40DAE19B051
:102F80002846BDE8F08F00000928010030313233B7
:102F90003435363738396162636465660000000095
:102FA000303132333435363738394142434445467F
:102FB00000000000600700D4062708F1070020F099
:102FC0000700F0E80223804603F0004C5FEA0C00A3
:102FD00001D097A009E0200501D596A005E0E00703
:102FE00001D095A001E0AFF24C001390307823F0AF
:102FF000004365280CD006DC452809D046281DD0A2
:1030000047287FD13BE0662818D067287AD136E080
:103010000021112F01DB112000E0781CCDE9000117
:1030200004A90CA8FFF7E6FCDDE90D010C9A4FF0AE
:10303000000B07F10109109200914EE04FF00040A3
:103040000097CDE9011004A90CA8FFF7D3FCDDE936
:103050000D020C9B0F994FF0000B914610930092BC
:1030600011B9791C00EB0109B7EB090003D4C0F1D9
:10307000FF3B07F10109A9EB0700019042E0012F96
:1030800000DA01270021112F01DD112000E0384670
:10309000CDE9000104A90CA8FFF7ACFCDDE90D01A6
:1030A0000C9A00914FF0000BB946109221070FD4F3
:1030B000009A4A4503DA914601E0A9F10109B9F104
:1030C000010F05DD109AA9F10101515C3029F4D0FE
:1030D000B84202DA10F1040F03DA0121CDE9011040
:1030E00010E0002803DC8344A9EB000102E0411C4E
:1030F000494500DD8946A0EB0B00401C01904FF0D4
:1031000000400290200705D40198484502DB4FF0AB
:10311000FF30019000208DF84B0002980DF14B0715
:10312000B0F1004F25D002200C902B200D9002987A
:1031300000280CDA404202902D200D9007E00A2171
:103140000298FDF72BF93031029007F8011D0C9918
:10315000481E0C900029F2DC02980028EFD1791E5D
:103160000D980870307800F0200040F0450007F816
:10317000020D11A8C01BC01D02901398007800B169
:10318000012000EB0901019801EBE0710298014474
:103190000398401A401E0390E00306D4534621468C
:1031A000179A039800F05CF805441398007818B15A
:1031B0005246179990476D1CE00323D5534621468C
:1031C000179A039800F04CF805441BE0BBF1000F80
:1031D00007DB0098584504DD1098179910F80B008C
:1031E00001E0179930205246904701980BF1010BEE
:1031F000401E05F10105019004D12E205246179979
:1032000090476D1CB9F10001A9F10109DEDC05E070
:1032100017F8010B5246179990476D1C0299481EEA
:1032200002900029F4DC53462146179A03989EE643
:103230002D0000002B000000200000002DE9F041CF
:10324000044600251E461746880404D405E0394686
:103250002020B0476D1C641EF9D52846BDE8F081DA
:103260002DE9F041044600251E469046C80301D5CD
:10327000302700E02027880404D505E04146384681
:10328000B0476D1C641EF9D52846BDE8F08130B505
:1032900083B00446FFF792FB05460020CDE900000D
:1032A000024621466846FDF7DCF82846FFF79CFBFE
:1032B000DDE9000103B030BD38B504468DF80000EB
:1032C0004FF6FF73012269460248FEF7EBFE2046E7
:1032D00038BD0000AC0100202DE9F041054608464C
:1032E000FCF7ECFFFFF740F8FCF7DFFF0446284649
:1032F000FCF7E4FFFFF764F8FCF7D7FF2146A54C85
:1033000006462068FCF799FF054620603146606854
:10331000FCF793FFA04AA1496060954201DB22605F
:1033200002E08D4200DC21609D4D4FF07E589042BE
:1033300001DB626002E0884200DC61602168A06815
:10334000FDF718F840D86168E068FDF713F83BD83E
:10335000A068FCF7B3FF0746E068FCF7AFFF06463E
:1033600022E02168A068FDF70FF804D34146A06869
:10337000FCF711FFA0606168E068FDF705F804D371
:103380004146E068FCF707FFE060A068FCF7AFFF8C
:103390002968C863E068FCF7AAFF29680864502020
:1033A000FDF77CFD761C7F1C3846FCF77EFF21680C
:1033B000FCF7E0FFD5D93046FCF777FF6168FCF7F2
:1033C000D9FFCED9C820CEE02168A068FCF7D2FF93
:1033D0003FD86168E068FCF7D7FF3AD8A068FCF7EF
:1033E0006DFF0746E068FCF769FF064622E02168AA
:1033F000A068FCF7C9FF04D34146A068FCF7CBFEE8
:10340000A0606168E068FCF7B5FF04D34146E0685E
:10341000FCF713FFE060A068FCF769FF2968C86348
:10342000E068FCF764FF296808645020FDF736FD6A
:10343000761E7F1C3846FCF738FF2168FCF79AFFA0
:10344000D5D93046FCF731FF6168FCF79DFFCED936
:10345000B8E72168A068FCF797FF3FD86168E0688B
:10346000FCF788FF3AD8A068FCF728FF0746E06819
:10347000FCF724FF064622E02168A068FCF77AFFEB
:1034800004D34146A068FCF7D8FEA0606168E068FC
:10349000FCF77AFF04D34146E068FCF77CFEE0606D
:1034A000A068FCF724FF2968C863E068FCF71FFFE9
:1034B000296808645020FDF7F1FC761C7F1E384611
:1034C000FCF7F3FE2168FCF75FFFD5D93046FCF727
:1034D000ECFE6168FCF74EFFCED973E72168A06867
:1034E000FCF752FF53D86168E068FCF74DFF4ED8F7
:1034F000A068FCF7E3FE0746E068FCF7DFFE06463F
:1035000022E02168A068FCF735FF04D34146A0689B
:10351000FCF793FEA0606168E068FCF72BFF04D322
:103520004146E068FCF789FEE060A068FCF7DFFE3A
:103530002968C863E068FCF7DAFE2968086450204F
:10354000FDF7ACFC761E7F1E3846FCF7AEFE216808
:10355000FCF71AFFD5D93046FCF7A7FE6168FCF7E7
:1035600013FFCED96420FDF799FC2068FCF7D3FE49
:1035700002460B460BA0FFF701FA6068FCF7CBFE92
:10358000BDE8F04102460B4608A0FFF7F7B9BDE8D9
:10359000F0810000000000200000254300000743E8
:1035A0009C000020783A256620200000793A2566A4
:1035B00020200D0A0000000086B000261421684675
:1035C000FCF7C9FDFDF780FDFEF760FFFEF7C6FDC5
:1035D000FEF7FAFDFEF74EFEFEF768FE0821F948F9
:1035E000FEF72CFA0C21F748FEF728FA0122F649DB
:1035F000F648FEF771FCFEF777FEDFF8D4A3DFF89C
:10360000D4B3F54C2021F548FDF74AFD78B9ED4DCE
:103610008C202968C8632968A02008644FF47A7058
:10362000FDF73CFC29689520C8632968086440219F
:10363000EA48FDF735FD08B1002E7DD0E14D5F462B
:10364000D1464FF07E563846FCF751FE01462868B9
:10365000C1631420FDF722FC31463846FCF7EDFD2E
:1036600007464845EFDADFF878835F463846FCF7CF
:103670003EFE0146286801641420FDF70FFC314628
:103680003846FCF788FD07464045EFDDCA464F4601
:10369000DFF850933846FCF72AFE2968C8631420E7
:1036A000FDF7FCFB31463846FCF775FD07464845FB
:1036B000F0DD4746DFF830833846FCF718FE29680E
:1036C00008641420FDF7EAFB31463846FCF7B5FDE7
:1036D00007464045F0DA4F46D1463846FCF707FE2C
:1036E0002968C8631420FDF7D9FB31463846FCF73A
:1036F000A4FD07464845F0DA4746D8463846FCF769
:10370000F6FD0146286801641420FDF7C7FB314629
:103710003846FCF740FD07464045EFDD4F4638464A
:10372000FCF7E5FD2968C8631420FDF7B7FB3146B7
:103730003846FCF730FD00E003E007464045EEDD8B
:1037400000268021A548FDF7ABFC28B901202060A8
:1037500006206060FEF7E6FD0121A448FDF7A0FC0D
:1037600038B1206801287FF44DAF6068062804D086
:103770000FE001202060606059E09E499C48C4E948
:103780000201FFF7A9FD072060604FF4FA60FDF722
:1037900085FB606807280BD198499748C4E9040164
:1037A000FFF79AFD082060604FF4FA60FDF776FBA2
:1037B000606808280BD192490020C4E90601FFF790
:1037C0008BFD092060604FF4FA60FDF767FB6068CD
:1037D00009280BD189498B48C4E90601FFF77CFD14
:1037E0000A2060604FF4FA60FDF758FB60680A2811
:1037F0000DD185490020C4E90A01FFF76DFD0520C0
:1038000060604FF4FA60FDF749FBFEF76DFD6068FC
:1038100001280CD00528A6D10020606020606948EE
:1038200096220168CA63006895210164EAE678235C
:10383000012276A17648FEF735FCDFF8D881DFF863
:10384000BC9100254FF07E5715F0FF4F19D164232E
:10385000132269466E48FEF7DFFA6846FFF717FD48
:10386000FCF76CFDA060FCF756FD02460B466AA013
:10387000FFF784F86846FCF779FC01466846FCF7D8
:103880006AFCBD4211D16423132269466048FEF7E9
:10389000C3FA6846FFF7FBFCFCF750FDE060FCF75D
:1038A0003AFD02460B465FA063E0B5F1804F1CD0A5
:1038B0004D452CD16423132269465548FEF7ACFAD6
:1038C0006846FFF7E4FCFCF739FD6061FCF723FD77
:1038D00002460B4656A0FFF751F86846FCF746FC37
:1038E00001466846FCF737FC4DE064231322694625
:1038F0004748FEF791FA6846FFF7C9FCFCF71EFD42
:103900002061FCF708FD02460B464CA031E0B5F102
:10391000814F1DD04C48854235D16423132269461E
:103920003B48FEF779FA6846FFF7B1FCFCF706FD65
:10393000E061FCF7F0FC02460B4644A0FFF71EF8DE
:103940006846FCF713FC01466846FCF704FC91E06E
:103950006423132269462E48FEF75EFA6846FFF795
:1039600096FCFCF7EBFCA061FCF7D5FC02460B468D
:1039700039A0FFF703F86846FCF7F8FB01466846F4
:10398000FCF7E9FBB5E03748854273D16423132285
:1039900069461F48FEF740FA6846FFF778FCFCF7D7
:1039A000CDFC2062FCF7B7FC02460B462EA0FEF7CA
:1039B000E5FF6846FCF7DAFB01466846FCF7CBFBFF
:1039C0006DE057E09C00002048000020AC01002082
:1039D00000000743000016431800002000080140C3
:1039E000000025430000264300000643000C014070
:1039F0000000B8C1000088C10000544200004040EF
:103A000000000842000064C2000010C23100000043
:103A1000F0010020000020417078313A25660D0A3F
:103A2000000000007079323A25660D0A000000009F
:103A30007079343A25660D0A000000007078333A38
:103A400025660D0A000000000000A0407079363A9B
:103A500025660D0A000000007078353A25660D0ACB
:103A6000000000000000C0407078373A25660D0A5B
:103A7000000000003848854211D1642313226946B2
:103A80003648FEF7C9F96846FFF701FCFCF756FC1B
:103A90006062FCF740FC02460B4631A069E7B5F1D5
:103AA000824F14D03148854223D1642313226946C2
:103AB0002A48FEF7B1F96846FFF7E9FBFCF73EFC40
:103AC000E062FCF728FC02460B4629A051E764237C
:103AD000132269462148FEF79FF96846FFF7D7FB96
:103AE000FCF72CFCA062FCF716FC02460B4623A058
:103AF0003FE739462846FCF74EFB05464045FFF6B2
:103B0000A3AE6420FDF7CAF9D4E90201FFF7E4FB94
:103B10004FF4FA652846FDF7C1F9D4E90401FFF72F
:103B2000DBFB2846FDF7BAF9D4E90601FFF7D4FB21
:103B30002846FDF7B3F9D4E90801FFF7CDFB284685
:103B4000FDF7ACF9D4E90A01FFF7C6FB2846FDF7FB
:103B5000A5F9052060605FE60000E040F00100206C
:103B60007079383A25660D0A000000000000104107
:103B70007079303A25660D0A000000007078393AF5
:103B800025660D0A00000000000000000000000093
:103B900001020304060708090000000001020304F3
:103BA000DDDDDDDDDCBBBBDDDDDDDDDDDDDDDDDD8A
:103BB00098888888888888887777777777888888CA
:103BC0008555555666666666666666666668888862
:103BD0008333333222222222222222222228888D5B
:103BE000003C0008000000206C000000C82900080C
:103BF0006C3C00086C000020CC050000D8290008AF
:103C00000000164300001643000016430000164350
:103C100000000000000000000000000000000000A4
:103C20000000000000000000000000000000000094
:103C30000000000000000000000000000000000084
:103C40000000000000000000000000000000000074
:103C50000000000001000000100000000000000053
:0C3C60000024F400000000000000000040
:04000005080000ED02
:00000001FF
